:020000040800F2
:100000000004002047010008C1060008C3060008DC
:10001000C7060008CB060008CF0600080000000055
:10002000000000000000000000000000D3060008EF
:10003000D506000800000000D7060008D906000811
:1000400067010008670100086701000867010008F0
:1000500067010008670100086701000867010008E0
:1000600067010008670100086701000867010008D0
:1000700067010008670100086701000867010008C0
:1000800067010008670100086701000867010008B0
:1000900067010008670100086701000867010008A0
:1000A0006701000867010008670100086701000890
:1000B000E3060008670100086701000867010008FF
:1000C0006701000867010008670100086701000870
:1000D00067010008DB0600086701000867010008E7
:1000E0006701000867010008670100086701000850
:1000F0006701000867010008670100086701000840
:10010000670100086701000867010008670100082F
:10011000670100086701000867010008670100081F
:10012000670100086701000867010008670100080F
:10013000DFF80CD003F04EF90048004783020008B6
:1001400018050020704708488047084981F308884F
:1001500007480047FEE7FEE7FEE7FEE7FEE7FEE7AB
:10016000FEE7FEE7FEE7FEE7450100081805002070
:100170003101000808B51C208DF8000000208DF822
:10018000010001208DF802008DF80300684601F09F
:10019000B6FD25208DF8000000208DF8010002201A
:1001A0008DF8020001208DF80300684601F0A7FDDC
:1001B000684601F0A4FD08BD08B50121282000F023
:1001C00099FD4FF60140ADF8000010208DF80300B6
:1001D00003208DF802006946F64800F0EFFA01218D
:1001E000F44800F09AFB4FF48061F24800F095FB70
:1001F0004FF40061EF4800F090FB4FF48051ED4860
:1002000000F08BFB4FF40051EA4800F086FB4FF4FE
:100210008041E84800F081FB4FF40041E54800F0E0
:100220007CFB0420ADF800006946E34800F0C6FA04
:100230000421E14800F071FB08BD10B50121DD4843
:1002400000F06BFB4FF48061DA4800F066FB4FF47E
:100250000061D84800F061FB4FF48051D54800F0B0
:100260005CFB4FF40051D34800F057FB4FF4804142
:10027000D04800F052FB4FF40041CE4800F04DFB57
:1002800010BD08B5002500260127002401F012FE4C
:100290004FF4C06001F02EFDFFF76CFF482003F023
:1002A00031F802F071FF03F069F8FFF785FF02F003
:1002B0007CFF054602F0D0FF064606EB860005EB04
:1002C0004000C7B2012700204FF4165302463946BA
:1002D000009002F07DFC02F03FFD00BFB748B0F98E
:1002E000000029287ED00DDC11283FD005DCB0B1FC
:1002F000052817D0092876D126E0202848D02528BF
:10030000F9D15BE0452876D004DC31286DD0402857
:10031000F1D148E0492869D05128ECD1C7E0FFF776
:100320008CFFDEE00121A34800F0F5FAC82003F0BD
:1003300005F84FF400619F4800F0EDFA4FF4744166
:100340009C4800F0EAFACCE001219A4800F0E3FA78
:10035000C82002F0F3FF4FF48051964800F0DBFA1A
:100360004FF46C41934800F0D8FABAE0012191486B
:1003700000F0D1FAC82002F0E1FF4FF400518D489F
:1003800000F0C9FA4FF45C418A4800F0C6FAA8E0D0
:100390004FF48041874800F0BEFA4BF60141854892
:1003A00000F0BBFA9DE04FF40041824800F0B3FA40
:1003B00047F601417F4800F0B0FA92E001217D4804
:1003C00000F0A9FAC82002F0B9FF4FF400617948A3
:1003D00000F0A1FA4FF48041764800F09CFA4FF407
:1003E000344104E01EE079E005E049E031E0714885
:1003F00000F093FA75E001216E4800F08CFAC820F5
:1004000002F09CFF4FF400616A4800F084FA4FF458
:100410000041684800F07FFA4FF4E841654800F079
:100420007CFA5EE00121634800F075FAC82002F012
:1004300085FF4FF480515F4800F06DFA4FF4804122
:100440005C4800F068FA4FF42C415A4800F065FA15
:1004500047E00121574800F05EFAC82002F06EFF25
:100460004FF48051534800F056FA4FF40041514880
:1004700000F051FA4FF4D8414E4800F04EFA30E007
:1004800001214C4800F047FAC82002F057FF4FF412
:100490000051484800F03FFA4FF48041454800F0D1
:1004A0003AFA4FF41C41434800F037FA19E00121B1
:1004B000404800F030FAC82002F040FF4FF40051ED
:1004C0003C4800F028FA4FF400413A4800F023FA83
:1004D0004FF4B841374800F020FA02E0FFF7ADFED4
:1004E00000BF00BF641C35480088202825D0334851
:1004F0000088402821D031480088F0B1032C3BD33C
:1005000000242F48007838B904212B4800F003FA62
:1005100001202B4908702FE029480078012807D1D5
:100520000421254800F0F9F900202549087023E04E
:100530000421214800F0EFF91EE0B4F5803F1BD301
:1005400000241F48007838B904211B4800F0E3F963
:1005500001201B4908700FE019480078012807D1D5
:100560000421154800F0D9F900201549087003E06E
:100570000421114800F0CFF902F013FCAEE62DE99A
:10058000F04105460E46174600240E48007820B973
:1005900002210D4800F0BFF903E002210A4800F0F3
:1005A000BCF90848007880F0010006490870204630
:1005B000BDE8F081000C014000140140F80000206B
:1005C000000000200100002000100140F0B50446AA
:1005D0000D4600202EB2761E002E34D46E1E164418
:1005E000802E30DC6E1E31B213B1012B2AD112E005
:1005F0000EE02F4E36F81160360A04F8016B2C4ECF
:1006000016F8116004F8016B4E1C31B2561EB2B2DE
:10061000002AEEDC16E012E014F8017B3E0236B24E
:10062000234F27F8116014F8016B37F911703E431E
:100630001F4F27F811604E1C31B2561EB2B2002A6D
:10064000EADC00BF00E00120F0BD2DE9F0410446E6
:100650000D4616461F461748007820B9082116484F
:1006600000F059F903E00821134800F056F9114849
:10067000007880F001000F4908700120BDE8F0818A
:1006800070B504460D4616460C48007820B9102176
:10069000094800F040F903E01021074800F03DF957
:1006A0000648007880F0010004490870012070BD00
:1006B000F80000200200002000100140030000208C
:1006C000704700BFFEE700BFFEE700BFFEE700BFC8
:1006D000FEE7704770477047704710B502F0F0FCB6
:1006E00010BD10B502F049FD10BD000010B5044664
:1006F000C649601A8C422FD009DCC548204480B11D
:10070000B0F5806F16D0B0F5006F4AD11BE0B0F5A0
:10071000806F2AD0B0F5006F30D0B0F5406F40D177
:1007200035E00121042000F0FFFA0021042000F050
:10073000FBFA37E00121082000F0F6FA002108203A
:1007400000F0F2FA2EE00121102000F0EDFA002175
:10075000102000F0E9FA25E00121202000F0E4FA61
:100760000021202000F0E0FA1CE00121402000F0F0
:10077000DBFA0021402000F0D7FA13E001218020AD
:1007800000F0D2FA0021802000F0CEFA0AE0012128
:10079000080200F0C9FA00214FF4807000F0C4FA9A
:1007A00000E000BF00BF10BD10B50121084600F0F9
:1007B000BBFA0021012000F0B7FA10BD2DE9F0418D
:1007C000024600250026002000230024002791F87F
:1007D00003C00CF00F0591F803C00CF0100CBCF135
:1007E000000F03D091F802C04CEA050591F800C053
:1007F000BCF1000F31D0146800202BE04FF0010C49
:100800000CFA00F3B1F800C00CEA03069E4220D1B6
:1008100083004FF00F0C0CFA03F7BC4305FA03FCFE
:100820004CEA040491F803C0BCF1280F06D14FF044
:10083000010C0CFA00FCC2F814C00AE091F803C0E5
:10084000BCF1480F05D14FF0010C0CFA00FCC2F8C6
:1008500010C0401C0828D1D31460B1F800C0BCF10E
:10086000FF0F34DD546800202EE000F1080C4FF03B
:10087000010808FA0CF3B1F800C00CEA03069E4226
:1008800021D183004FF00F0C0CFA03F7BC4305FA9B
:1008900003FC4CEA040491F803C0BCF1280F05D115
:1008A00000F1080C08FA0CF8C2F8148091F803C0A3
:1008B000BCF1480F07D100F1080C4FF0010808FA0D
:1008C0000CF8C2F81080401C0828CED35460BDE854
:1008D000F0814FF6FF710180022181700421C17007
:1008E00070470246002093680B400BB1012000E0E6
:1008F000002070470146886880B270470246002099
:10090000D3680B400BB1012000E000207047014686
:10091000C86880B2704701617047416170470AB191
:10092000016100E041617047C16070474FF480325F
:100930000A438261816182618269826970470246ED
:100940000020344B18684FF68073184040EA0210BC
:100950000843304B186070472F49C8617047F0B5A5
:100960000A4600230024002100252A4E7168C0F3A6
:10097000034583B200F44016B6F5401F08D121F0BC
:100980007061244E766826F07066224F7E6012E019
:1009900000F48016B6F5801F06D1032606FA05F48A
:1009A000A14341F0706106E0460D360103FA06F6F8
:1009B000B14341F0706122B1460D360103FA06F6EB
:1009C0003143144E7160F0BD30B500228B071C0F0F
:1009D0000F2303FA04F20F4B08338C1053F8243022
:1009E00093430C4C08348D1044F8253023468C106A
:1009F00053F824308C07240F00FA04F42343054CE9
:100A000008348D1044F8253030BD0000001401403A
:100A100000F8FEBF0000014000002042DE480068F0
:100A200040F00100DC49086008464068DB490840A6
:100A3000D949486008460068D9490840D649086045
:100A40000846006820F4802008600846406820F4CA
:100A5000FE004860002088607047CF49096821F493
:100A60008031CD4A11601146096821F4802111605E
:100A7000B0F5803F03D0B0F5802F0ED106E0C64917
:100A8000096841F48031C44A116007E0C24909682D
:100A900041F4A021C04A116000E000BF00BF7047D0
:100AA00010B501460022002300204A11012A02D17C
:100AB000B94C236806E0022A02D1B74C236A01E050
:100AC000B54C636A01F01F02012494401C400CB134
:100AD000012000E0002010BD38B500200090002467
:100AE000002500BF3120FFF7DBFF05460098401CC2
:100AF00000901DB90098B0F5A06FF3D13120FFF739
:100B0000CFFF08B1012400E00024204638BD014693
:100B10000020A14A106820F0F80040EAC1001060EF
:100B20007047A04908607047024600209A4B5868F9
:100B300020F47C1042EA01031843974B5860704739
:100B400098490866704701460020934A506820F093
:100B500003000843506070478F48406800F00C0065
:100B60007047014600208C4A506820F0F00008438E
:100B70005060704701460020874A506820F4E060CA
:100B800008435060704701460020834A506820F4B3
:100B9000605040EAC1005060704729B17E4A527AE5
:100BA00002437D4B5A7204E07B4A527A82437A4B6D
:100BB0005A7270477B49D83108607047014600205F
:100BC000754A506820F44040084350607047002147
:100BD000714A20321170704A82F82010012802D028
:100BE00004280AD104E001216B4A2032117005E08B
:100BF0000521694A2032117000E000BF00BF704734
:100C00006949086070476449096A0143624A116290
:100C10007047654944390860704730B500210022AB
:100C2000002400235C4D6D6805F00C0121B10429FE
:100C300005D0082923D105E05C4D056022E05B4D1D
:100C400005601FE0544D6D6805F47012022505EB38
:100C50009242514D6D6805F480341CB9544D554392
:100C600005600BE04C4D6D6805F400351DB1504D2D
:100C70005543056002E04D4D5543056002E04B4D84
:100C8000056000BF00BF444D6D6805F0F001090923
:100C9000484D6B5C0568DD4045603F4D6D6805F46F
:100CA000E061090A434D6B5C4568DD4085603A4D63
:100CB0006D6805F46051C90A3E4D6B5C4568DD40C6
:100CC000C560354D6D6805F44041890B3A4D6B5C4C
:100CD000C568B5FBF3F5056130BD29B12E4A5269EF
:100CE00002432D4B5A6104E02B4A526982432A4B3E
:100CF0005A61704729B1284A92690243264B9A618A
:100D000004E0254A92698243234B9A61704729B1D6
:100D1000214AD2690243204BDA6104E01E4AD269BB
:100D200082431D4BDA61704729B11B4AD2680243E6
:100D3000194BDA6004E0184AD2688243164BDA6035
:100D4000704729B1144A12690243134B1A6104E037
:100D5000114A12698243104B1A6170471249403997
:100D6000086070470F49C86470470B49C8717047E5
:100D70000948406A40F08070074948627047014660
:100D80000020054A92680A400AB1012000E00020D4
:100D90007047014988727047001002400000FFF858
:100DA000FFFFF6FE000042428004424200127A0039
:100DB00000093D00040000201400002010B5044686
:100DC000F749601A8C4245D00CDCB4F1804F1DD03D
:100DD000F448204418B3B0F5806F29D0B0F5006F07
:100DE00054D12EE0B0F5806F3DD0B0F58E3F03D0EA
:100DF000B0F5923F4AD13FE00121C802FFF794FFCE
:100E000000214FF40060FFF78FFF40E0012108460A
:100E1000FFF797FF00210120FFF793FF37E0012143
:100E20000220FFF78EFF00210220FFF78AFF2EE04D
:100E300001210420FFF785FF00210420FFF781FF37
:100E400025E001210820FFF77CFF00210820FFF7A3
:100E500078FF1CE001211020FFF773FF0021102014
:100E6000FFF76FFF13E001212020FFF76AFF002149
:100E70002020FFF766FF0AE001214803FFF754FF37
:100E800000214FF40050FFF74FFF00E000BF00BF0C
:100E900010BD028802F08F020280CA884B881A4374
:100EA00003881A4302808A8882850A880285BE4A9E
:100EB000904202D0BD4A904201D10A7A02860122B4
:100EC0008282704770B5002400220023058C4FF603
:100ED000FE7635400584028C8388048B4FF68F752F
:100EE0002C400D882C43751E2A400D892A434D88BD
:100EF0002A43CD888586AC4DA84202D0AB4DA8428E
:100F000013D14FF6F7752A404D892A434FF6FB75EA
:100F10002A408D882A4347F6FF652B4047F6FF5548
:100F20002B408D892B43CD892B43838004830284FE
:100F300070BD70B5002400220023058C4FF6EF76BB
:100F400035400584028C8388048B48F6FF752C405D
:100F50000D884FF6FF7606EA05252C434FF6DF7520
:100F60002A400D8906EA05152A434D8806EA05152B
:100F70002A43CD8805878C4DA84202D08B4DA842CC
:100F80001DD14FF67F752A404D894FF6FF7606EA50
:100F900005152A434FF6BF752A408D8806EA0515C8
:100FA0002A4347F6FF352B4047F2FF752B408D89CA
:100FB00006EA85052B43CD8906EA85052B43838008
:100FC0000483028470BD70B5002400220023058CC8
:100FD0004FF6FF6635400584028C8388848B4FF67C
:100FE0008F752C400D882C434FF6FF552A400D89F4
:100FF0004FF6FF7606EA05252A434D8806EA0525C1
:101000002A43CD888587684DA84202D0674DA84203
:101010001DD14FF2FF752A404D894FF6FF7606EA43
:1010200005252A434FF6FF352A408D8806EA052517
:101030002A4346F6FF752B4045F6FF752B408D89F8
:1010400006EA05152B43CD8906EA05152B43838057
:101050008483028470BD70B5002400220023058CB7
:101060004EF6FF7635400584028C8388848B48F6E3
:10107000FF752C400D884FF6FF7606EA05252C43B8
:101080004DF6FF752A400D8906EA05352A434D883D
:1010900006EA05352A43CD88A0F84050424DA842C3
:1010A00002D0424DA84207D1C3F30D038D894FF6FC
:1010B000FF7606EA85152B4383808483028470BD06
:1010C000828B4FF2FF331A408283828B4FF6FF737D
:1010D00003EA01231A4382837047F0B50C46154694
:1010E000002100220026078C4EF6FF7C07EA0C0741
:1010F0000784818B028C4FF6FF7707EA043640F6AF
:10110000FF4739404FF6FF7707EA05274FF6FF7C88
:101110000CEA033C47EA0C0739434DF6FF773A40A7
:1011200046F480573A4381830284F0BD828B4FF6A8
:10113000F3731A408283828B0A4382837047F0B52F
:101140000C461546002100220026078C4FF6FF6C46
:1011500007EA0C070784818B028C4FF6FF7707EABA
:1011600004264FF60C7739404FF6FF7707EA03174E
:101170002F4339434FF6FF573A4046F480773A43BE
:1011800081830284F0BD028B4FF2FF331A40028349
:10119000028B4FF6FF7303EA01231A430283704761
:1011A0000010004000FCFFBF002C01400034014053
:1011B000F0B50C461546002100220026078C4FF69C
:1011C000EF7C07EA0C070784018B028C4FF6FF7750
:1011D00007EA041640F6FF4739404FF6FF7707EA63
:1011E000033739434FF6FF7707EA052739434FF6B0
:1011F000DF773A4046F010073A4301830284F0BD9E
:10120000028B4FF6F3731A400283028B0A43028368
:101210007047F0B50C46154600210022068C4FF6AB
:10122000FE773E400684018B028C4FF60C763140EF
:101230007E1C06EA03162E4331437E1E324044F0E4
:101240000106324301830284F0BD70B505460C46A9
:10125000208850B92389A28861882846FFF7D9FFE2
:10126000E1882846FFF7CCFF25E0208804280AD132
:101270002389A28861882846FFF79AFFE1882846DB
:10128000FFF781FF17E0208808280AD12389A28868
:1012900061882846FFF753FFE1882846FFF746FF9D
:1012A00009E02389A28861882846FFF716FFE188B4
:1012B0002846FFF705FF70BD2DE9F04105460C46B5
:1012C00000260127608808B9022600E00026A088D1
:1012D000012801D1022700E001272088A0B9238935
:1012E000A28861882846FFF794FFE1882846FFF727
:1012F00087FF23893A4631462846FFF759FFE188A0
:101300002846FFF740FF13E02389A288618828461A
:10131000FFF74EFFE1882846FFF735FF23893A465D
:1013200031462846FFF775FFE1882846FFF768FF3A
:10133000BDE8F0810A884B881A438B881A43CB8812
:101340001A430B891A434B891A438B891A43A0F815
:10135000442070474FF6FF71818000210180C180D9
:101360004180017270470021018041808180C180ED
:10137000018141818181C1817047002101804180CB
:10138000012181800021C1800181704700210180FD
:1013900041808180C180018141818181704721B17B
:1013A000028842F00102028004E0028840F2FE332B
:1013B0001A400280704731B1B0F8442042F4004234
:1013C000A0F8442005E0B0F84420C2F30E02A0F8D3
:1013D000442070471AB183890B43838102E08389DB
:1013E0008B43838170478182704741EA0203A0F8F2
:1013F000483070471AB183890B43838102E08389A7
:101400008B438381704701894FF6F8721140018147
:1014100070470A46002101894FF68F731940114326
:101420000181704730B504460D4629462046FFF736
:10143000F0FF208940F00700208130BD2DE9F04108
:1014400004460D4616461F46602D06D13B46012236
:1014500031462046FFF7ACFE05E03B46012231460F
:101460002046FFF7D6FE29462046FFF7D2FF208907
:1014700040F007002081BDE8F08170B50C460021E6
:101480000189C9B244EA02054FF6FF7606EA03264F
:1014900035432943018170BD2DE9F04105460E46D3
:1014A00017469846002443463A4631462846FFF7F9
:1014B000E4FF2C894FF6F870044044F007044FF61F
:1014C0008F70044044F070042C81BDE8F081F0B5C9
:1014D00004460D4616461F463B46324629462046E0
:1014E000FFF7CBFF208940F480402081F0BD0185CB
:1014F000828270470A460021018840F28F331940EA
:10150000114301807047F0B50C4615461E46002178
:10151000002200230189028B038C4FF6F8773940B3
:1015200021434FF6FC473A4040F201173A434FF649
:10153000DD773B404FF6FF7707EA06172F433B4323
:10154000018102830384F0BD0A460021018B4FF61E
:101550008F7319401143018370470A460021018BA4
:1015600048F6FF7319404FF6FF7303EA022319434D
:10157000018370470A460021818B4FF68F73194013
:101580001143818370470A460021818B48F6FF731F
:1015900019404FF6FF7303EA022319438183704712
:1015A00021B1028842F08002028004E0028840F209
:1015B0007F331A400280704721B1828842F00402D2
:1015C000828004E082884FF6FB731A408280704765
:1015D00021B1828842F00802828004E082884FF6BE
:1015E000F7731A408280704721B1828842F001026D
:1015F000828004E082884FF6FE731A408280704732
:101600000A460021018B4FF6F773194011430183FD
:1016100070470A460021018B4FF2FF7319404FF6C5
:10162000FF7303EA02231943018370470A4600212E
:10163000818B4FF6F77319401143818370470A4637
:101640000021818B4FF2FF7319404FF6FF7303EABD
:1016500002231943818370470A460021018B4FF60C
:10166000FB7319401143018370470A460021018B27
:101670004FF6FF3319404FF6FF7303EA0223194375
:10168000018370470A460021818B4FF6FB73194096
:101690001143818370470A460021818B4FF6FF3347
:1016A00019404FF6FF7303EA022319438183704701
:1016B0000A460021018B4FF67F73194011430183C5
:1016C00070470A460021018BC1F30E014FF6FF73EC
:1016D00003EA02231943018370470A460021818BE4
:1016E0004FF67F7319401143818370470A460021EA
:1016F000818BC1F30E014FF6FF7303EA02231943F6
:10170000818370470A460021018C4FF6FD73194012
:101710001143018470470A460021018C4FF6F7738C
:1017200019401143018470470A460021018C4FF68D
:10173000DF7319404FF6FF7303EA02131943018464
:1017400070470A460021018C4FF67F7319404FF60F
:10175000FF7303EA02131943018470470A4600210C
:10176000018C4FF6FF5319404FF6FF7303EA022333
:101770001943018470470A460021018C4FF2FF7320
:1017800019404FF6FF7303EA02231943018470479F
:101790000A460021018C4DF6FF7319404FF6FF7386
:1017A00003EA023319430184704710B5038C012406
:1017B0008C40A3430384038C02FA01F4A4B22343B4
:1017C000038410BD10B5038C04248C40A343038410
:1017D000038C02FA01F4A4B22343038410BD30B594
:1017E000038C01248C40A343038409B1082918D138
:1017F00000F1180303EB61031B684FF68F7423405D
:1018000000F1180404EB6104236000F1180303EBFA
:1018100061031B68134300F1180404EB61042360A7
:101820001FE00B1FC3F34E0400F118031B5948F6C9
:10183000FF7423400C1FC4F34E0500F118046351DC
:101840000B1FC3F34E0400F118031B594FF6FF742E
:1018500004EA022423430C1FC4F34E0500F11804CC
:10186000635130BD21B1028842F00202028004E0DF
:10187000028840F2FD331A400280704721B102888D
:1018800042F00402028004E0028840F2FB331A4076
:101890000280704721B1828842F08002828004E099
:1018A00082884FF67F731A4082807047028840F228
:1018B000F7331A40028002880A4302807047828808
:1018C0004FF68F731A40828082880A438280704765
:1018D00002894FF6F8731A40028102890A43028195
:1018E000704702894FF67F731A40028102890A43CA
:1018F0000281704781847047818570478186704777
:101900000187704781877047A0F8401070470288B0
:10191000D2B2028002880A43028070470146888E54
:1019200070470146088F70470146888F704701460F
:10193000B1F8400070470146888C70470146088D19
:10194000704702460020138A0B400BB1012000E0D3
:1019500000207047CA430282704730B5024600201B
:1019600000230024158A05EA0103958905EA01048C
:1019700013B10CB1012000E0002030BDCA43028247
:101980007047000010B50446D749601A8C422BD02E
:1019900006DCD648204498B1B0F5806F38D119E004
:1019A000B0F5806F2AD0B0F56C4F31D1012188039A
:1019B000FFF7BAF900214FF48040FFF7B5F928E0AE
:1019C00001214804FFF7BDF900214FF40030FFF773
:1019D000B8F91EE001218804FFF7B3F900214FF4A4
:1019E0008020FFF7AEF914E00121C804FFF7A9F940
:1019F00000214FF40020FFF7A4F90AE001210805B7
:101A0000FFF79FF900214FF48010FFF79AF900E0EB
:101A100000BF00BF10BD2DE9F04786B005460E4659
:101A20000024A24600BF00BF00272F462C8A4CF698
:101A3000FF700440F08804432C82AC894EF6F3100A
:101A40000440B08831890843718908430443AC815C
:101A5000AC8A4FF6FF400440B0890443AC8201A831
:101A6000FFF7DBF8A248874202D1DDF810A001E0C1
:101A7000DDF80CA00AEBCA0000EB0A1031688900FF
:101A8000B0FBF1F86420B8FBF0F0040120096421F8
:101A900001FB1089322000EB0910B0FBF1F000F0DF
:101AA0000F0004432C8106B0BDE8F0874FF41651B7
:101AB000016000218180C18001810C2141810021D0
:101AC0008181704710B502460020108A4FF2FF0353
:101AD00018400B884C8823438C882343CC882343AD
:101AE0001843108210BD0021018041808180C18097
:101AF000704721B1828942F40052828104E08289D8
:101B00004DF6FF731A4082817047F0B503460024FA
:101B10000026002500201846C1F3421401F01F06DC
:101B2000012707FA06F5012C01D10C3004E0022C44
:101B300001D1103000E014301AB107682F4307605C
:101B400002E00768AF430760F0BD1AB1838A0B4318
:101B5000838202E0838A8B4383827047028A4FF636
:101B6000F0731A400282028A0A4302827047828915
:101B70004FF2FF731A40828182890A438281704743
:101B800021B1828942F00202828104E082894FF60B
:101B9000FD731A4082817047028A4FF6DF731A4044
:101BA0000282028A0A430282704721B1028A42F409
:101BB0008042028204E0028A4BF6FF731A400282DE
:101BC0007047C1F308028280704701468888C0F3DD
:101BD00008007047818941F0010181817047028BC3
:101BE000D2B20283028B42EA012202837047028B47
:101BF00002F47F420283028B0A430283704721B1C1
:101C0000828A42F02002828204E0828A4FF6DF73E9
:101C10001A408282704721B1828A42F01002828289
:101C200004E0828A4FF6EF731A408282704721B136
:101C3000828A42F00802828204E0828A4FF6F773B9
:101C40001A4082827047828A4FF6FB731A40828262
:101C5000828A0A438282704721B1828A42F002025C
:101C6000828204E0828A4FF6FD731A4082827047B6
:101C70000246002013880B400BB1012000E0002039
:101C80007047CA430280704770B502460B46002475
:101C9000002100250020C3F3421503F01F01012697
:101CA00006FA01F1012D02D19689314006E0022D9C
:101CB00002D1168A314001E0968A31401C12012679
:101CC00006FA04F41688344011B10CB1012000E08A
:101CD000002070BD10B5002200230A120124944098
:101CE000A3B2DC43048010BD004C004000BCFFBF29
:101CF0000038014031490143314A1160704770B5E5
:101D0000002100230F22C47804B32D4C246804F46E
:101D1000E064C4F5E064210AC1F10403CA404478D8
:101D200004FA03F18478144021430901254C067814
:101D3000A155047804F01F050124AC4005786D110D
:101D4000AD0005F1E025C5F8004109E0047804F094
:101D50001F050124AC401C4D0678761145F826403D
:101D600070BD1A4A0A400243154B1B1F1A60704788
:101D700039B1134A121D12680243114B1B1D1A6020
:101D800006E00F4A121D126882430D4B1B1D1A609C
:101D90007047042808D14FF0E021096941F004019F
:101DA0004FF0E022116107E04FF0E021096921F0D6
:101DB00004014FF0E0221161704700000000FA05B5
:101DC0000CED00E000E400E080E100E080FFFF1F98
:101DD0000CB50020019000904748006840F4803026
:101DE0004549086000BF4448006800F40030009096
:101DF0000198401C0190009818B90198B0F5A06FA7
:101E0000F1D13D48006800F4003010B1012000908D
:101E100001E0002000900098012844D13748006874
:101E200040F01000354908600846006820F00300C3
:101E300008600846006840F0020008602E484068CC
:101E40002D4948600846406848600846406840F4AC
:101E5000806048600846406820F47C10486008466E
:101E6000406840F4E81048600846006840F0807020
:101E7000086000BF2048006800F000700028F9D01A
:101E80001D48406820F003001B4948600846406830
:101E900040F00200486000BF1748406800F00C00A6
:101EA0000828F9D101E000BFFEE70CBD10B5FFF72F
:101EB0008FFF10BD10B51048006840F001000E49BA
:101EC0000860084640680E4908400B4948600846CB
:101ED00000680C490840084908600846006820F47A
:101EE000802008600846406820F4FE00486000201A
:101EF0008860FFF7DBFF10BD0010024000200240A9
:101F00000000FFF8FFFFF6FE70B502460C46FF2505
:101F1000FF2309E012F8010B80EA03010648405C48
:101F200080EA05030548455C2000A4F10106B4B22F
:101F3000F0D143EA052070BD1634000816350008BC
:101F40002DE9F04781460E4614461F464FF0000823
:101F500001F00CF83B4608222146304601F02CF8EF
:101F6000012802D04FF003080FE0B4F5964F01D9D5
:101F7000232503E060008C49B1FBF0F5A8B201F025
:101F8000BDF8012801D04FF0030800F0EDFF4046F6
:101F9000BDE8F08710B500F0E9FF00208349087024
:101FA0000021012000F0E4FF01F0C7F800F0DCFFA1
:101FB00010BD10B500F0DAFF0021084600F0D8FF90
:101FC00001F0CFF800F0D0FF10BD2DE9F04104463C
:101FD0000D4616464FF00008002700F0C7FF744872
:101FE0000088042812DB724801887248FFF78CFFD2
:101FF00060B97048007820706D480088C01E30803D
:102000006C48401C28604FF0010800E0052700F0F4
:10201000ABFF3846BDE8F0812DE9F04105460E469C
:1020200017464FF0000800F0A1FF60480078012833
:1020300029D1701E604908600120604908805E480F
:102040000068057008460088384408800846018802
:1020500059480068FFF758FF044658490888411C52
:10206000564B198053490C54221219460888411CBA
:10207000198050490A54012051490870012100205B
:1020800000F076FF01E04FF0050800F06DFF4046DC
:10209000BDE8F08138B50024684601F004F84348F3
:1020A000007830B101280AD0022819D003282BD19A
:1020B00002E001F042F827E001F03FF824E00020C0
:1020C0003B4908809DF800200888411C384B198046
:1020D00038490A5402203549087001F02EF813E0FF
:1020E00033480088FF2809DC9DF800203049088823
:1020F000411C2F4B19802F490A5402E003202B4921
:10210000087001F01AF800BF00BF204638BD10B5B6
:1021100000242B48007810B1012824D104E00021CC
:10212000012000F025FF1EE02448008878B12249F4
:102130000968087800F0A8FF1F480068401C1E4985
:1021400008601E480088401E1C4908800AE00320E1
:1021500000F0F1FE04460021012000F009FF0020FC
:102160001749087000BF00BF204610BD10B50024FD
:102170000E48007820B1022807D003280BD109E0CF
:10218000002000F0D8FE044606E0012000F0D3FE57
:10219000044601E000E000BF00BF00F0E2FF0120C4
:1021A00002490870204610BDA07F170019000020CA
:1021B00022000020F80100201C0000202000002048
:1021C000180000202DE9F04180460C4615461E46B9
:1021D000002700F0CBFE0A20E749087033460722AB
:1021E0002946204600F0E8FE012801D0032706E03A
:1021F00044F6206000F082FF012800D0032700F0A1
:10220000B3FE3846BDE8F08110B500F0AFFE002106
:10221000012000F0ADFE0020D849087000F0A4FEB7
:10222000002000F088FE10BD10B500F09FFE0021D8
:10223000084600F09DFE00F094FF00F095FE10BDF2
:1022400010B50246002003E012F8014B2318D8B263
:102250000B00A1F10104A1B2F6D14342D8B210BDE6
:102260002DE9F04104460D461646002700F07EFE9B
:10227000C3480088032813DBC1480188C1480068AF
:10228000FFF7DEFF60B9BF48006800782070BC48E7
:102290000088801E3080BB480068401C286000E039
:1022A000052700F061FE3846BDE8F0812DE9F041D8
:1022B00004460D4616464FF0000800F057FEAF48A2
:1022C000007818BB681EB04908600120AF4908803B
:1022D000AD4800680470084600883044088008460D
:1022E0000188A9480068FFF7ABFF0746A74908889F
:1022F000411CA64A1180A34909680F540120A44932
:1023000008700121002000F033FE01E04FF00508C5
:1023100000F02AFE4046BDE8F0810146302905DB89
:10232000392903DCA1F13000C0B27047412905DB37
:10233000462903DCA1F13700C0B2F6E7FF20F4E73D
:1023400038B50025684600F0AEFE8C4800780028BD
:102350006ED0012802D0022879D146E000F0EDFECF
:102360009DF800003A2805D100208A490870844968
:10237000088039E09DF800000D2803D102207F4934
:10238000087031E09DF80000FFF7C7FF0446814860
:10239000007810B1012826D114E079480088FF2880
:1023A0000ADC2007000E77490968754A12888854AC
:1023B00001207849087016E000207049087000F08C
:1023C000D0FE10E06F4909686D4A128888180178BC
:1023D000214301706A480088401C69490880002038
:1023E0006C49087000BF00BF31E09DF800006249F1
:1023F0000978884209D100F0B4FE00205F490870D6
:10240000012000F098FD054611E09DF800003A28F3
:102410000AD100205F4908705949088001205749B6
:10242000087000F08AFE02E00020544908700EE0B7
:102430009DF800003A2809D100F07FFE00205049A5
:1024400008805449087001204C49087000BF00BF43
:10245000284638BD0146092903DC01F13000C0B22D
:1024600070470A2905DB0F2903DC01F13700C0B2F0
:10247000F6E73020F4E770B50025454800780528D8
:1024800064D2DFE800F05E030E474F003A24204696
:1024900000F0FAFD02203E49087000203D49087016
:1024A00054E03A48008800282DDD3A48007810B101
:1024B000012827D10DE03449096809780811FFF790
:1024C000C9FF0446204600F0DFFD012031490870B5
:1024D00018E02D490968097801F00F00FFF7BAFFED
:1024E0000446204600F0D0FD27480068401C2649DD
:1024F000086000202749087024480088401E2349AE
:10250000088000BF05E00D2000F0BEFD032020493B
:1025100008701BE01848007800F0B6FD04201C4944
:10252000087013E000201A490870032000F003FD32
:1025300005460021012000F01BFD00201449087011
:1025400004E00021012000F013FD00BF00BF284679
:1025500070BD10B509480078012802D0022805D1C5
:1025600000E000BF00200549087000E000BF00BF88
:1025700000F0F7FD002010BD3700002025000020EE
:102580002C00002028000020300000203400002013
:10259000240000202E0000202DE9F05F06460D46A5
:1025A0004FF0000B2888052848D170784FEA0029A1
:1025B000B07840EA090909F101001FFA80F9F078C2
:1025C000040230790443012C35DBB4F5FA6F32DABA
:1025D000374600202880012007F8010B2888401C7E
:1025E000288004F0070040B12046E11704EB517148
:1025F000C910491C01F0FF0805E02046E11704EB73
:102600005171C1F3C70807F8018B2888401C288046
:102610000023224649463846FEF717F88246BAF1AB
:10262000000F04D0504600F0C2FA834608E0288824
:102630004044288004E04FF0030B01E04FF0030B0F
:102640005846BDE8F09F2DE9F84304460F464FF089
:1026500000083888052829D160780502A07805434C
:10266000681C85B22079F0B9E078FF2801D0E078C5
:10267000C8B900208DF80100E078FF2803D10120BF
:102680008DF8000002E000208DF8000001231A46BA
:1026900029466846FDF7D9FF06464EB1304600F0A0
:1026A00086FA804604E04FF0030801E04FF003088B
:1026B0004046BDE8F8832DE9F05F05460E464FF031
:1026C000000B3088052839DD68780702A8780743B1
:1026D000781C87B2E87804022879044395F805A0AD
:1026E00004F0070040B12046E11704EB5171C91016
:1026F000491C01F0FF0805E02046E11704EB517189
:10270000C1F3C708012C16DBB4F5F66F13DCD04516
:1027100011D1012322463946A81DFDF796FF8146B7
:10272000B9F1000F04D0484600F041FA834607E0B3
:102730000520308004E04FF0030B01E04FF0030B65
:102740005846BDE8F09F2DE9F05F06460D464FF074
:10275000000B2888052847D170784FEA0029B07807
:1027600040EA090909F101001FFA80F9F078040232
:1027700030790443012C34DBB4F5FA6F31DA374693
:1027800000202880022007F8010B2888401C2880A0
:1027900004F0070040B12046E11704EB5171C91065
:1027A000491C01F0FF0805E02046E11704EB5171D8
:1027B000C1F3C70807F8018B2888401C28802246EF
:1027C00049463846FDF75CFF8246BAF1000F04D057
:1027D000504600F0ECF9834608E028884044288001
:1027E00004E04FF0030B01E04FF0030B5846BDE847
:1027F000F09F2DE9F04104460F464FF0000838885D
:10280000052812D160780502A0780543681C85B2BE
:1028100001231A462946E01CFDF7D8FE064636B1CC
:10282000304600F0C4F9804601E04FF0030840460E
:10283000BDE8F0812DE9F04704460E464FF0000A4E
:102840003088062828DB60780702A0780743781CC8
:1028500087B2E07805022079054394F80590012DB0
:1028600017DB782D15DC6806000E484511D10123D1
:102870002A463946A01DFDF7A9FE8046B8F1000F93
:1028800004D0404600F093F9824607E005203080EE
:1028900004E04FF0030A01E04FF0030A5046BDE8A0
:1028A000F0872DE9F04705460C464FF0000A2088D6
:1028B000052837D168784FEA0028A87840EA080848
:1028C00008F101001FFA80F8E87806022E79012E3F
:1028D00025DB7D2E23DC2F4600202080032007F8F7
:1028E000010B2088401C20807006000E07F8010BA9
:1028F0002088401C20800023324641463846FDF7A0
:1029000065FE8146B9F1000F04D0484600F04FF94A
:10291000824609E0208800EB4600208004E04FF06A
:10292000030A01E04FF0030A5046BDE8F0872DE9A5
:10293000FC5F04460D460020009028880A285DDBD5
:1029400060784FEA002AA07840EA0A0A0AF10100FA
:102950001FFA80FAE07806022079064360794FEA90
:10296000002BA07940EA0B0B0BF101001FFA80FB52
:10297000E0790702207A0743607A0190012E3BDB61
:102980007D2E39DC012F37DB792F35DC790001987A
:10299000814231D101233A46594604F10A00FDF73C
:1029A00015FE8146B9F1000F1ED1A04600202880F7
:1029B000172008F8010B2888401C28807006000E9C
:1029C00008F8010B2888401C288000233246514615
:1029D0004046FDF7FBFD8146B9F1000F04D1288880
:1029E000022101FB06002880B9F1000F06D04846FD
:1029F00000F0DDF8009001E0032000900098BDE8B1
:102A0000FC9F2DE9F04705460C464FF0000A208850
:102A1000052837D168784FEA0028A87840EA0808E6
:102A200008F101001FFA80F8E878060228790643C9
:102A3000012E24DB7D2E22DA2F4600202080042068
:102A400007F8010B2088401C20807006000E07F854
:102A5000010B2088401C2080324641463846FDF755
:102A60008EFD8146B9F1000F04D0484600F09FF872
:102A7000824609E0208800EB4600208004E04FF009
:102A8000030A01E04FF0030A5046BDE8F08700005A
:102A90002DE9F04105460E4617461C464FF000084A
:102AA000A01C202826DA00201C490880084601883E
:102AB0000088401C194A1080194845540EB1FF2265
:102AC00000E00022154801880088401C134B188044
:102AD00013484254002C0FDD01461A46128888180C
:102AE0002246394600F064FC0C48008820440B491B
:102AF000088001E04FF004084046BDE8F08170B561
:102B000005460C46054802880549681C00F050FC43
:102B100002480088401C2080002070BD3800002042
:102B2000F80200202DE9F043044615461F46C80868
:102B3000A1EBC0081FFA88FC07FA0CF81FFA88F707
:102B40004FF0010808FA05F8A8F101081FFA88F605
:102B5000A1EBC00806FA08F81FFA88F6225C00F11B
:102B6000010814F8088042EA082222EA060848EA26
:102B7000070222544FEA222900F1010804F80890C4
:102B8000BDE8F083F0B503460C461546E208A4EB19
:102B9000C20087B20120A840401E86B2995C501C3A
:102BA000185C41EA002139413140C8B2F0BD01460C
:102BB00021B1012904D0072906D103E0002005E056
:102BC000022003E0062001E0042000BF00BF7047A0
:102BD0002DE9F04705460C4616461F46DDF82090C5
:102BE0004FF000081CB1012C01DBF72C02DD4FF087
:102BF000020859E0AE48047015B1012D42D120E021
:102C0000AC48AD490860AD48AD490860AD48AE4933
:102C10000860AE48AE4908600020AE490860AE4882
:102C2000AE490860AE48AF490860AF48AF49086098
:102C30004B463A4631469E480078FFF781F9804678
:102C400023E0AB489C490860AA489D490860AA480F
:102C50009D490860A9489E49086000209D49086078
:102C6000A7489E490860A7489E490860A6489F4912
:102C700008604B463A4631468D480078FFF7A2FA85
:102C8000804602E04FF0020800BF00BFB8F1000F1D
:102C90000AD100F04BF910B94FF0030804E09B484B
:102CA000057001209A4908704046BDE8F0872DE97B
:102CB000F04105460E46002D3ADD7F2D38DC00F050
:102CC00055F9F6B1002412E0924800EBC4004068C8
:102CD00028B1904800EBC4004068B04206D18D484E
:102CE00000F8345000EBC400466002E0641C102C75
:102CF000EADB00BF102C01D0002000E004200746D2
:102D000013E000240DE0834810F83400A84207D1F6
:102D10000020804901F8340001EBC401486002E062
:102D2000641C102CEFDB00BF002700F01DF900E051
:102D300002273846BDE8F08110B5002474480078B9
:102D4000012806D16348006820B1624800688047C6
:102D500000E00624204610BD10B500246C48007821
:102D6000012806D15448006880470020684908704F
:102D700000E00624204610BD10B56548007838B93B
:102D80004F4800688047012061490870002406E030
:102D90005F480078012801D1002400E00624204685
:102DA00010BD38B500255A48007808B1062038BD56
:102DB000684600F0C8F8012877D19DF8000030B1CE
:102DC000012805D0022818D003286DD16BE06BE0F4
:102DD000514A524952483E4B1B68984705465DB9D7
:102DE0004F48007832490978884202D04C48007830
:102DF00010B9022000F09FF856E0484800680078BB
:102E000048490870012048490870002417E04148EB
:102E100010F8340000B914E03E4810F8340041497D
:102E2000097888420AD13B4800EBC4003A4942681D
:102E30003A48006890473C49087002E0641C102C36
:102E4000E5DB00BF3648007858B337480078C8B192
:102E50000020314908803348007840F080012E4836
:102E600002880088401C2C4B18802C480068815434
:102E70002D480278184601880088401C1880274891
:102E80000068425421480078012800D100BF224840
:102E9000028822480168064800780B4B1B68984757
:102EA000054601E001E000BF00BF00207FE7000011
:102EB0003C000020951F000844000020B31F0008BC
:102EC000480000201920000840000020CB1F000807
:102ED0004C000020500000209520000854000020E5
:102EE0000F210008580000206D2100085C00002020
:102EF0000922000829220008AD22000861220008EA
:102F00004123000877240008532500083D000020D5
:102F10003E00002068000020EE000020E8000020B5
:102F2000EC000020ED000020F000002000200C4903
:102F300008700120704701460120094A10700948B5
:102F400001700120704701460020054A127832B115
:102F5000044A12780A700022014B1A70012070474F
:102F6000F2000020F100002062B6704772B6704790
:102F700070B505460C46FFF7F9FF35B1012240F266
:102F800025515A48FEF7C1FD05E0002240F22551C7
:102F90005648FEF7BAFD34B1012240F2277153487A
:102FA000FEF7B3FD05E0002240F227714F48FEF71F
:102FB000ACFDFFF7D9FF70BD2DE9F04186B080462A
:102FC0000D4617461C460126012144F22500FDF757
:102FD00091FE18208DF817007002ADF81400032040
:102FE0008DF8160005A94248FDF7E8FB48208DF84A
:102FF0001700B002ADF8140003208DF8160005A9E3
:103000003B48FDF7DBFB019524B1012C06D0022CD7
:103010000ED108E00020ADF80C0009E04FF4C060CC
:10302000ADF80C0004E04FF48060ADF80C0000BF78
:1030300000BF072F0BD0082F0AD11CB90020ADF814
:10304000080003E04FF48050ADF8080002E001E012
:10305000002600BF00BF9EB1FFF788FF0020ADF83B
:103060000A00ADF810000C20ADF80E0001A91F48B1
:10307000FEF7D1FC01211D48FEF73BFDFFF774FF71
:10308000304606B0BDE8F08110B504462146174829
:10309000FEF797FD00BF80211448FEF7E9FD0028E8
:1030A000F9D0012010BD10B5044640F225510F485B
:1030B000FEF7E7FD0D48FEF788FD2070012010BDEA
:1030C00010B540F227710948FEF7DEFD18B1094836
:1030D0000068804708E040F225510448FEF7D4FD1F
:1030E00010B105480068804710BD0000003801405D
:1030F0000008014058000020540000203EB504465E
:1031000001210846FDF703FE4FF47A70604380B258
:10311000ADF804003720ADF800000020ADF806003F
:10312000ADF8020069464FF08040FDF7B2FE012184
:103130008807FEF70FFC01203EBD10B5012188076E
:10314000FEF708FC00214FF08040FEF7D3FB012280
:1031500011469007FEF73EF901218807FEF71FF997
:1031600010BD10B5002201218807FEF733F90021B8
:103170004FF08040FEF713F910BD10B5014800680C
:10318000804710BD5C00002008B501211020FDF72C
:10319000B1FD4FF47F50ADF8000048208DF80300DA
:1031A00069465748FDF70AFB08BD2DE9F0410025A7
:1031B00000260027A8464FF480615148FDF791FB97
:1031C00001280AD00A2000F0B9F84FF480614C4879
:1031D000FDF787FB012800D001254FF40061484826
:1031E000FDF77FFB01280AD00A2000F0A7F84FF472
:1031F00000614348FDF775FB012800D002264FF41B
:1032000080513F48FDF76DFB01280AD00A2000F0ED
:1032100095F84FF480513A48FDF763FB012800D040
:1032200004274FF400513648FDF75BFB01280BD013
:103230000A2000F083F84FF400513148FDF751FBAC
:10324000012801D04FF0080845EA0600384340EA5B
:1032500008042046BDE8F0812DE9F0410025002654
:103260000027A84640212648FDF73BFB012809D04E
:103270000A2000F063F840212148FDF732FB0128C5
:1032800000D0012580211E48FDF72BFB012809D025
:103290000A2000F053F880211948FDF722FB01288D
:1032A00000D002264FF480711548FDF71AFB012863
:1032B0000AD00A2000F042F84FF480711048FDF760
:1032C00010FB012800D004274FF400710C48FDF7D3
:1032D00008FB01280BD00A2000F030F84FF40071F1
:1032E0000748FDF7FEFA012801D04FF0080845EA2B
:1032F0000600384340EA08042046BDE8F08100009B
:10330000001001404FF0E021096921F004014FF065
:10331000E0221161C21700EB5272C2F3C702154BD3
:103320001A701946097801EB4102C2EBC1114FF640
:10333000FF7202EAC101104A1180704701460E4A2D
:1033400012884A434FF0E0235A6100229A61012219
:103350001A6100BF4FF0E022106900F001021AB1BB
:1033600000F48032002AF5D000224FF0E0231A61E9
:103370009A617047F4000020F600002008B5012192
:103380002020FDF7B7FC0420ADF8000010208DF8D8
:10339000030003208DF8020069460448FDF70EFA89
:1033A00004210248FDF7B7FA08BD000000140140EF
:1033B00040EA01039B0703D009E008C9121F08C0B7
:1033C000042AFAD203E011F8013B00F8013B521E37
:1033D000F9D27047064C074D06E0E06840F0010363
:1033E00094E8070098471034AC42F6D3FCF7A4FEEB
:1033F000183600083836000802E008C8121F08C155
:10340000002AFAD170477047002001E001C1121F65
:10341000002AFBD1704700C1814001C0804101C03A
:10342000804100C1814001C0804100C1814000C194
:10343000814001C0804101C0804100C1814000C184
:10344000814001C0804100C1814001C0804101C074
:10345000804100C1814001C0804100C1814000C164
:10346000814001C0804100C1814001C0804101C054
:10347000804100C1814000C1814001C0804101C044
:10348000804100C1814001C0804100C1814000C134
:10349000814001C0804101C0804100C1814000C124
:1034A000814001C0804100C1814001C0804101C014
:1034B000804100C1814000C1814001C0804101C004
:1034C000804100C1814001C0804100C1814000C1F4
:1034D000814001C0804100C1814001C0804101C0E4
:1034E000804100C1814001C0804100C1814000C1D4
:1034F000814001C0804101C0804100C1814000C1C4
:10350000814001C0804100C1814001C0804101C0B3
:10351000804100C1814000C0C101C30302C2C60690
:1035200007C705C5C404CC0C0DCD0FCFCE0E0ACAFB
:10353000CB0BC90908C8D81819D91BDBDA1A1EDE4B
:10354000DF1FDD1D1CDC14D4D515D71716D6D212FB
:1035500013D311D1D010F03031F133F3F23236F60B
:10356000F737F53534F43CFCFD3DFF3F3EFEFA3ABB
:103570003BFB39F9F83828E8E929EB2B2AEAEE2E4B
:103580002FEF2DEDEC2CE42425E527E7E62622E2BB
:10359000E323E12120E0A06061A163A3A26266A60B
:1035A000A767A56564A46CACAD6DAF6F6EAEAA6A7B
:1035B0006BAB69A9A86878B8B979BB7B7ABABE7ECB
:1035C0007FBF7DBDBC7CB47475B577B7B67672B27B
:1035D000B373B17170B0509091519353529296560B
:1035E0005797559594549C5C5D9D5F9F9E5E5A9A3B
:1035F0009B5B99595898884849894B8B8A4A4E8ECB
:103600008F4F8D4D4C8C448485458747468682423A
:1036100043834181804000003836000800000020CC
:10362000F8000000F833000830370008F8000020E8
:103630002004000008340008000000000000000022
:103640000102030401020304060708090204060834
:10365000000000000000000000000000000000006A
:10366000F801002000000000000000000000000041
:103670000000000000000200000000000000000048
:10368000000000000000000000000000000000003A
:10369000000000000000000000000000000000002A
:1036A00011000000FF2A000804000000032A00089F
:1036B00003000000A32800081000000035280008BF
:1036C00006000000F3270008170000002F2900085B
:1036D00001000000992500080500000047260008A9
:1036E0000F000000B726000802000000472700086E
:1036F00000000000000000000000000000000000CA
:1037000000000000000000000000000000000000B9
:1037100000000000000000000000000000000000A9
:103720000000000000000000000000000000000099
:0400000508000147A7
:00000001FF
